{
  "contractName": "TestContract",
  "abi": [
    {
      "constant": false,
      "inputs": [
        {
          "name": "_firstParam",
          "type": "uint256"
        },
        {
          "name": "_secondParam",
          "type": "uint256"
        },
        {
          "name": "_description",
          "type": "string"
        }
      ],
      "name": "testMethod",
      "outputs": [
        {
          "name": "result_",
          "type": "bool"
        }
      ],
      "payable": false,
      "stateMutability": "nonpayable",
      "type": "function"
    }
  ],
  "bytecode": "0x608060405234801561001057600080fd5b506101a6806100206000396000f300608060405260043610610041576000357c0100000000000000000000000000000000000000000000000000000000900463ffffffff168063e420a18614610046575b600080fd5b34801561005257600080fd5b5061009360048036038101908080359060200190929190803590602001909291908035906020019082018035906020019190919293919293905050506100ad565b604051808215151515815260200191505060405180910390f35b6000846000819055508282600191906100c79291906100d5565b508385149050949350505050565b828054600181600116156101000203166002900490600052602060002090601f016020900481019282601f1061011657803560ff1916838001178555610144565b82800160010185558215610144579182015b82811115610143578235825591602001919060010190610128565b5b5090506101519190610155565b5090565b61017791905b8082111561017357600081600090555060010161015b565b5090565b905600a165627a7a723058209b1ef44e197a60dcc68482edac9fc117e6df897a73a2234bce6ca62e9bcd6ced0029",
  "source": "pragma solidity ^0.4.24;\r\n\r\ncontract TestContract {\r\n\r\n  uint stateVar;\r\n  string stateVar2;\r\n\r\n  function testMethod(uint _firstParam, uint _secondParam, string _description)\r\n    external\r\n    returns (bool result_)\r\n  {\r\n    stateVar = _firstParam;\r\n    stateVar2 = _description;\r\n\r\n    return _firstParam == _secondParam;\r\n  }\r\n\r\n}"
}